{
  "address": "0x6D93459EaAd5c87e890fd368d6C866170E9703fe",
  "abi": [
    {
      "inputs": [
        {
          "internalType": "contract IEAS",
          "name": "eas",
          "type": "address"
        },
        {
          "internalType": "bytes32",
          "name": "schema",
          "type": "bytes32"
        }
      ],
      "stateMutability": "nonpayable",
      "type": "constructor"
    },
    {
      "inputs": [],
      "name": "InvalidDappId",
      "type": "error"
    },
    {
      "inputs": [],
      "name": "InvalidEAS",
      "type": "error"
    },
    {
      "inputs": [],
      "name": "InvalidRatingUID",
      "type": "error"
    },
    {
      "inputs": [],
      "name": "InvalidSchemaUID",
      "type": "error"
    },
    {
      "inputs": [],
      "name": "InvalidStarRating",
      "type": "error"
    },
    {
      "anonymous": false,
      "inputs": [
        {
          "indexed": true,
          "internalType": "bytes32",
          "name": "ratingUid",
          "type": "bytes32"
        },
        {
          "indexed": true,
          "internalType": "address",
          "name": "revokedBy",
          "type": "address"
        },
        {
          "indexed": false,
          "internalType": "uint256",
          "name": "revokedAt",
          "type": "uint256"
        }
      ],
      "name": "DappRatingRevoked",
      "type": "event"
    },
    {
      "anonymous": false,
      "inputs": [
        {
          "indexed": true,
          "internalType": "bytes32",
          "name": "attestationId",
          "type": "bytes32"
        },
        {
          "indexed": true,
          "internalType": "bytes32",
          "name": "dappId",
          "type": "bytes32"
        },
        {
          "indexed": false,
          "internalType": "uint8",
          "name": "starRating",
          "type": "uint8"
        },
        {
          "indexed": false,
          "internalType": "string",
          "name": "reviewText",
          "type": "string"
        }
      ],
      "name": "DappRatingSubmitted",
      "type": "event"
    },
    {
      "anonymous": false,
      "inputs": [
        {
          "indexed": true,
          "internalType": "bytes32",
          "name": "dappId",
          "type": "bytes32"
        },
        {
          "indexed": false,
          "internalType": "string",
          "name": "name",
          "type": "string"
        },
        {
          "indexed": false,
          "internalType": "string",
          "name": "description",
          "type": "string"
        },
        {
          "indexed": false,
          "internalType": "string",
          "name": "url",
          "type": "string"
        },
        {
          "indexed": false,
          "internalType": "address",
          "name": "owner",
          "type": "address"
        },
        {
          "indexed": false,
          "internalType": "uint256",
          "name": "registrationTime",
          "type": "uint256"
        }
      ],
      "name": "DappRegistered",
      "type": "event"
    },
    {
      "inputs": [
        {
          "internalType": "bytes32",
          "name": "dappId",
          "type": "bytes32"
        },
        {
          "internalType": "uint8",
          "name": "starRating",
          "type": "uint8"
        },
        {
          "internalType": "string",
          "name": "reviewText",
          "type": "string"
        }
      ],
      "name": "addDappRating",
      "outputs": [
        {
          "internalType": "bytes32",
          "name": "",
          "type": "bytes32"
        }
      ],
      "stateMutability": "nonpayable",
      "type": "function"
    },
    {
      "inputs": [],
      "name": "dappCounter",
      "outputs": [
        {
          "internalType": "uint256",
          "name": "",
          "type": "uint256"
        }
      ],
      "stateMutability": "view",
      "type": "function"
    },
    {
      "inputs": [
        {
          "internalType": "bytes32",
          "name": "",
          "type": "bytes32"
        }
      ],
      "name": "dappIdIsRegistered",
      "outputs": [
        {
          "internalType": "bool",
          "name": "",
          "type": "bool"
        }
      ],
      "stateMutability": "view",
      "type": "function"
    },
    {
      "inputs": [
        {
          "internalType": "bytes32",
          "name": "dappId",
          "type": "bytes32"
        }
      ],
      "name": "isDappRegistered",
      "outputs": [
        {
          "internalType": "bool",
          "name": "",
          "type": "bool"
        }
      ],
      "stateMutability": "view",
      "type": "function"
    },
    {
      "inputs": [
        {
          "internalType": "string",
          "name": "_name",
          "type": "string"
        },
        {
          "internalType": "string",
          "name": "_description",
          "type": "string"
        },
        {
          "internalType": "string",
          "name": "_url",
          "type": "string"
        }
      ],
      "name": "registerDapp",
      "outputs": [],
      "stateMutability": "nonpayable",
      "type": "function"
    },
    {
      "inputs": [
        {
          "internalType": "bytes32",
          "name": "ratingUid",
          "type": "bytes32"
        }
      ],
      "name": "revokeDappRating",
      "outputs": [],
      "stateMutability": "nonpayable",
      "type": "function"
    }
  ],
  "transactionHash": "0xb1b1bd577977973aaf74e48d9e708710b75cd131fd3779e038dbdb57c3ac6dcf",
  "args": [
    "0x4200000000000000000000000000000000000021",
    "0xe0e1b78797994244e42ace9e2878348cfcff5194f0a43fe17492d4a7c2a30713"
  ],
  "numDeployments": 1,
  "solcInputHash": "950ccb43dd8dcfa01588b5d420466cda",
  "bytecode": "0x60c060405234801561001057600080fd5b506040516109d43803806109d483398101604081905261002f9161008a565b6001600160a01b038216610056576040516341bc07ff60e11b815260040160405180910390fd5b80610074576040516380d9b7d760e01b815260040160405180910390fd5b6001600160a01b0390911660805260a0526100c4565b6000806040838503121561009d57600080fd5b82516001600160a01b03811681146100b457600080fd5b6020939093015192949293505050565b60805160a0516108dd6100f7600039600081816101c10152610321015260008181610187015261038301526108dd6000f3fe608060405234801561001057600080fd5b50600436106100625760003560e01c80635080f8a2146100675780635d6b87f91461008d578063838c8f32146100a2578063ad26be0b146100d5578063cdb0d863146100f8578063da15437814610101575b600080fd5b61007a6100753660046105dc565b610114565b6040519081526020015b60405180910390f35b6100a061009b36600461063b565b6102f8565b005b6100c56100b036600461063b565b60016020526000908152604090205460ff1681565b6040519015158152602001610084565b6100c56100e336600461063b565b60009081526001602052604090205460ff1690565b61007a60005481565b6100a061010f366004610654565b610421565b6000831580610132575060008481526001602052604090205460ff16155b1561015057604051630172951f60e01b815260040160405180910390fd5b60018360ff161080610165575060058360ff16115b15610183576040516352b79ea360e01b815260040160405180910390fd5b60007f00000000000000000000000000000000000000000000000000000000000000006001600160a01b031663f17325e760405180604001604052807f000000000000000000000000000000000000000000000000000000000000000081526020016040518060c0016040528060006001600160a01b03168152602001600067ffffffffffffffff1681526020016001151581526020016000801b81526020018a8a8a60405160200161023893929190610722565b604051602081830303815290604052815260200160008152508152506040518263ffffffff1660e01b8152600401610270919061074d565b6020604051808303816000875af115801561028f573d6000803e3d6000fd5b505050506040513d601f19601f820116820180604052508101906102b391906107d0565b905084817fa7772ec4b89def345a0c116dedd194085f26c634cd44ecbfb0cbd51b06f3e1dd86866040516102e89291906107e9565b60405180910390a3949350505050565b80610316576040516309e46d6b60e41b815260040160405180910390fd5b6040805180820182527f000000000000000000000000000000000000000000000000000000000000000081528151808301835283815260006020808301919091528083019182529251634692626760e01b81529151600483015251805160248301529091015160448201527f00000000000000000000000000000000000000000000000000000000000000006001600160a01b031690634692626790606401600060405180830381600087803b1580156103cf57600080fd5b505af11580156103e3573d6000803e3d6000fd5b50506040514281523392508391507f764fcaa8b2c6f1ba30688315d0db01c26b0d2a711b539acfe472ab46848d02b89060200160405180910390a350565b600081604051602001610434919061080d565b60408051601f1981840301815291815281516020928301206000818152600190935291205490915060ff16156104c25760405162461bcd60e51b815260206004820152602960248201527f446170702077697468207468652073616d652055524c20616c726561647920726044820152681959da5cdd195c995960ba1b606482015260840160405180910390fd5b6000805490806104d183610829565b9091555050600081815260016020819052604091829020805460ff191690911790555181907f71d03fa8269cbec478f1015fc359602c0c972654f5084a3030f00fc83418aeba9061052b9087908790879033904290610850565b60405180910390a250505050565b634e487b7160e01b600052604160045260246000fd5b600082601f83011261056057600080fd5b813567ffffffffffffffff8082111561057b5761057b610539565b604051601f8301601f19908116603f011681019082821181831017156105a3576105a3610539565b816040528381528660208588010111156105bc57600080fd5b836020870160208301376000602085830101528094505050505092915050565b6000806000606084860312156105f157600080fd5b83359250602084013560ff8116811461060957600080fd5b9150604084013567ffffffffffffffff81111561062557600080fd5b6106318682870161054f565b9150509250925092565b60006020828403121561064d57600080fd5b5035919050565b60008060006060848603121561066957600080fd5b833567ffffffffffffffff8082111561068157600080fd5b61068d8783880161054f565b945060208601359150808211156106a357600080fd5b6106af8783880161054f565b935060408601359150808211156106c557600080fd5b506106318682870161054f565b60005b838110156106ed5781810151838201526020016106d5565b50506000910152565b6000815180845261070e8160208601602086016106d2565b601f01601f19169290920160200192915050565b83815260ff8316602082015260606040820152600061074460608301846106f6565b95945050505050565b60208152815160208201526000602083015160408084015260018060a01b03815116606084015267ffffffffffffffff60208201511660808401526040810151151560a0840152606081015160c0840152608081015160c060e08501526107b86101208501826106f6565b905060a0820151610100850152809250505092915050565b6000602082840312156107e257600080fd5b5051919050565b60ff8316815260406020820152600061080560408301846106f6565b949350505050565b6000825161081f8184602087016106d2565b9190910192915050565b60006001820161084957634e487b7160e01b600052601160045260246000fd5b5060010190565b60a08152600061086360a08301886106f6565b828103602084015261087581886106f6565b9050828103604084015261088981876106f6565b6001600160a01b03959095166060840152505060800152939250505056fea264697066735822122016e787e0f07d4c93ffb0eb41b6226456100a806acb97b17e074ece6b0f40650364736f6c63430008190033",
  "devdoc": {
    "kind": "dev",
    "methods": {
      "constructor": {
        "params": {
          "eas": "The address of the global EAS contract.",
          "schema": "The schema UID of the DappRatingSystem."
        }
      }
    },
    "version": 1
  },
  "userdoc": {
    "kind": "user",
    "methods": {
      "constructor": {
        "notice": "Creates a new DappRatingSystem instance."
      }
    },
    "version": 1
  },
  "storageLayout": {
    "storage": [
      {
        "astId": 2360,
        "contract": "contracts/DappRatingSystem.sol:DappRatingSystem",
        "label": "dappCounter",
        "offset": 0,
        "slot": "0",
        "type": "t_uint256"
      },
      {
        "astId": 2364,
        "contract": "contracts/DappRatingSystem.sol:DappRatingSystem",
        "label": "dappIdIsRegistered",
        "offset": 0,
        "slot": "1",
        "type": "t_mapping(t_bytes32,t_bool)"
      }
    ],
    "types": {
      "t_bool": {
        "encoding": "inplace",
        "label": "bool",
        "numberOfBytes": "1"
      },
      "t_bytes32": {
        "encoding": "inplace",
        "label": "bytes32",
        "numberOfBytes": "32"
      },
      "t_mapping(t_bytes32,t_bool)": {
        "encoding": "mapping",
        "key": "t_bytes32",
        "label": "mapping(bytes32 => bool)",
        "numberOfBytes": "32",
        "value": "t_bool"
      },
      "t_uint256": {
        "encoding": "inplace",
        "label": "uint256",
        "numberOfBytes": "32"
      }
    }
  }
}